:020000040800F2
:100000000050002055020008000000000000000021
:100010008902000889020008890200080000000027
:10002000000000000000000000000000890200083D
:100030008902000800000000890200083D03000852
:100040008902000889020008890200088902000864
:100050008902000889020008890200088902000854
:100060008902000889020008890200088902000844
:100070008902000889020008890200088902000834
:100080008902000889020008890200088902000824
:100090008902000889020008890200088902000814
:1000A0008902000889020008890200088902000804
:1000B00089020008890200088902000889020008F4
:1000C00089020008890200088902000889020008E4
:1000D00089020008890200088902000889020008D4
:1000E00089020008890200088902000889020008C4
:1000F00089020008890200088902000889020008B4
:1001000089020008890200088902000889020008A3
:100110008902000889020008890200088902000893
:100120008902000889020008890200088902000883
:1001300000000000000000000000000000000000BF
:1001400000000000000000000000000000000000AF
:10015000000000000000000000000000000000009F
:10016000000000000000000000000000000000008F
:10017000000000000000000000000000000000007F
:10018000000000000000000000000000000000006F
:10019000000000000000000000000000000000005F
:1001A000000000000000000000000000000000004F
:1001B000000000000000000000000000000000003F
:1001C000000000000000000000000000000000002F
:1001D0000000000000000000000000005FF8E0F1F7
:1001E00080B483B000AF164B7B60164B3B607A68DF
:1001F0003B689A4210D00BE07B681A683B681A6033
:100200003B6803F104033B607B6803F104037B60FC
:100210003A680D4B9A42EFD30C4B3B6007E03B68CA
:100220004FF000021A603B6803F104033B603A6838
:10023000074B9A42F3D307F10C07BD4680BC7047C9
:10024000B82A000800000020280000202800002014
:1002500068010020684620F007018D4689B500AF8F
:10026000FFF7BEFF064A074B23F0684323F07F03E6
:1002700043F00063936000F0ABFE00F06FF8FEE720
:1002800000ED00E00000000080B400AFFEE700BF1A
:1002900080B483B000AF03463960FB7197F9073033
:1002A000002B0DDA0E49FB7903F00F03A3F10403D1
:1002B0003A68D2B24FEA0212D2B2CB181A760AE0EA
:1002C000084997F907303A68D2B24FEA0212D2B21F
:1002D000CB1883F8002307F10C07BD4680BC70479C
:1002E00000ED00E000E100E080B582B000AF786092
:1002F0007A686FF07F439A4202D94FF0010316E00B
:100300000D4B7A6822F07F4202F1FF325A604FF0C3
:10031000FF304FF00F01FFF7BBFF074B4FF000021C
:100320009A60054B4FF007021A604FF00003184621
:1003300007F10807BD4680BD10E000E080B500AFC2
:10034000054B054AD26882F00102DA6000F092FCA7
:1003500000F0A6FD80BD00BF0008014080B582B05E
:1003600000AF7860396000F033FE4FF00D004FF0C1
:10037000010101F0A7FD1A484FF0010101F0D4F985
:100380004FF004004FF0010101F09CFD154B4FF0C0
:100390001002DA70134B4FF001021A80114B4FF02C
:1003A00003029A7010480F4900F0DEFF0E484FF02C
:1003B00001014FF0010201F039F947F6122000F077
:1003C0004BF800F077F94BF68030FFF78DFF00F027
:1003D00095FD4FF00003184607F10807BD4680BDA4
:1003E00000023000600100200008014080B582B0AA
:1003F00000AF0346FB7100BF08484FF0800102F0D8
:10040000A5FA0346002BF7D0FB799BB203481946A7
:1004100002F04AF907F10807BD4680BD00380140E7
:1004200080B584B000AF786003E0FB7B1846FFF72F
:10043000DDFF7B681B78FB73FB7B002B0CBF00236D
:100440000123DBB27A6802F101027A60002BECD161
:1004500007F11007BD4680BD80B588B000AF786059
:100460004FF005004FF0010101F02CFD4FF48040EA
:100470004FF0010101F026FD4FF40073BB834FF0F4
:100480001803FB774FF00303BB7707F11C031848F1
:10049000194600F069FF4FF48063BB834FF00403FB
:1004A000FB7707F11C031248194600F05DFF7B68DB
:1004B000FB604FF000033B824FF000037B824FF064
:1004C0000003BB824FF000033B834FF00C03FB8221
:1004D00007F10C030748194601F086FE05484FF066
:1004E000010101F0B7FF07F12007BD4680BD00BF45
:1004F000000801400038014080B485B000AF78604A
:10050000124B93F8813003F10103DBB203F01F03B8
:10051000FB730E4B93F88030FA7B9A4202D14FF076
:1005200000030DE0094B93F881301A46074B7968B8
:1005300043F82210054BFA7B83F881204FF001032A
:10054000184607F11407BD4680BC704728000020FC
:1005500080B483B000AF7860134B93F88020124BC7
:1005600093F881309A4202D14FF0000316E00E4B0F
:1005700093F880301A460C4B53F822207B681A609F
:10058000094B93F8803003F10103DBB203F01F0342
:10059000DAB2054B83F880204FF00103184607F1CB
:1005A0000C07BD4680BC70472800002080B485B091
:1005B00000AF786039603B6803F108034FF0000238
:1005C0001A704FF00703FB7320E097F90F303A6879
:1005D000D0187968124BA3FB01234FEAD3021346CC
:1005E0004FEA83039B184FEA4303CA1AD3B203F1BD
:1005F0003003DBB203707A68094BA3FB02134FEAA6
:10060000D3037B60FB7B03F1FF33FB7397F90F3060
:10061000002BDADA07F11407BD4680BC704700BF33
:10062000CDCCCCCC80B483B000AF786003E07B68E5
:1006300003F1FF337B607B68002BF8D107F10C07D7
:10064000BD4680BC704700BF80B485B000AF786005
:100650000B467B804FF00003FB731CE07A88FB7B2A
:1006600042FA03F303F00103002B08D0FB7BC3F134
:100670000F037A68D3184FF031021A7007E0FB7B42
:10068000C3F10F037A68D3184FF030021A70FB7B66
:1006900003F10103FB73FB7B0F2BDFD97B6803F1B5
:1006A00010034FF000021A7007F11407BD4680BC1A
:1006B000704700BF80B582B000AF4FF004004FF02C
:1006C000010101F0FFFB4FF008004FF0010101F0C4
:1006D000F9FB4FF010004FF0010101F0F3FB4FF078
:1006E0001003FB714FF00303BB714FF00103BB809C
:1006F00007F10403AB48194600F036FEA9484FF055
:1007000001014FF0000200F091FF4FF00203BB80A7
:1007100007F10403A348194600F026FEA1484FF054
:1007200002014FF0000200F081FF4FF40043BB8054
:1007300007F104039C48194600F016FE9A484FF44E
:1007400000414FF0000200F071FF4FF00803BB8042
:1007500007F104039348194600F006FE91484FF054
:1007600008014FF0000200F061FF4FF01003BB8062
:1007700007F104038B48194600F0F6FD89484FF055
:1007800010014FF0000200F051FF4FF02003BB803A
:1007900007F104038348194600F0E6FD81484FF055
:1007A00020014FF0000200F041FF4FF04003BB80FA
:1007B00007F104037B48194600F0D6FD79484FF055
:1007C00040014FF0000200F031FF4FF08003BB808A
:1007D00007F104037348194600F0C6FD71484FF055
:1007E00080014FF0000200F021FF4FF48073BB80C6
:1007F00007F104036B48194600F0B6FD69484FF451
:1008000080714FF0000200F011FF4FF40073BB80C5
:1008100007F104036348194600F0A6FD61484FF450
:1008200000714FF0000200F001FF4FF48063BB80C5
:1008300007F104035B48194600F096FD59484FF450
:1008400080614FF0000200F0F1FE4FF40063BB80C6
:1008500007F104035348194600F086FD51484FF450
:1008600000614FF0000200F0E1FE4FF48053BB80C6
:1008700007F104034B48194600F076FD49484FF450
:1008800080514FF0000200F0D1FE4FF40053BB80C6
:1008900007F104034348194600F066FD41484FF450
:1008A00000514FF0000200F0C1FE4FF02803FB7131
:1008B0004FF00203BB8007F104033B48194600F0E8
:1008C00053FD4FF00403BB8007F10403364819467B
:1008D00000F04AFD4FF00803BB8007F104033248E3
:1008E000194600F041FD4FF01003BB8007F10403EF
:1008F0002D48194600F038FD4FF02003BB8007F16A
:1009000004032948194600F02FFD4FF04003BB8037
:1009100007F104032448194600F026FD4FF0800338
:10092000BB8007F104032048194600F01DFD4FF479
:100930008073BB8007F104031B48194600F014FDC7
:100940004FF48043BB8007F104031648194600F0BA
:100950000BFD4FF40043BB8007F104031148194617
:1009600000F002FD4FF40063BB8007F104030E4862
:10097000194600F0F9FC4FF48053BB8007F10403E3
:100980000948194600F0F0FC4FF04803FB714FF4A2
:100990000043BB8007F104030448194600F0E4FC5F
:1009A00006E000BF000C01400008014000100140BB
:1009B00007F10807BD4680BD80B485B000AF03468F
:1009C000FB80FB88FB60274BFA6802F0010242F4CF
:1009D00080321A61234BFA6802F002024FEA520297
:1009E0004FEA420242F400321A611F4BFA6802F0E9
:1009F00004024FEA92024FEAC23242F000421A6108
:100A0000184BFA6802F008024FEAD2024FEAC2021B
:100A100042F400221A61134BFA6802F010024FEA06
:100A200012124FEA021242F480121A610D4BFA6858
:100A300002F020024FEA52124FEA421242F4001230
:100A40001A61084BFA6802F040024FEA92124FEA2C
:100A5000821242F480021A6107F11407BD4680BC7D
:100A6000704700BF000C01400008014080B485B011
:100A700000AF0346FB80FB88FB60284BFA6802F05E
:100A800001024FEAC21242F400021A61234BFA68D3
:100A900002F002024FEA52024FEA022242F0807252
:100AA0001A611E4BFA6802F004024FEA92024FEA02
:100AB000422242F000721A61184BFA6802F00802F2
:100AC0004FEAD2024FEA822242F080621A61134B4F
:100AD000FA6802F010024FEA12124FEAC22242F004
:100AE00000621A610D4BFA6802F020024FEA5212BE
:100AF0004FEA023242F080521A61084BFA6802F063
:100B000040024FEA92124FEA423242F000521A611A
:100B100007F11407BD4680BC704700BF000C0140C0
:100B200080B582B000AF4FF00003FB804F484FF01C
:100B3000020100F007FD03461A46FB881343FB80C1
:100B40004A484FF0040100F0FDFC03464FEA43031E
:100B50009AB2FB8813439BB2FB8044484FF00801D4
:100B600000F0F0FC03464FEA83039AB2FB8813437C
:100B70009BB2FB803D484FF0100100F0E3FC0346C0
:100B80004FEAC3039AB2FB8813439BB2FB803748FA
:100B90004FF0200100F0D6FC03464FEA03139AB24F
:100BA000FB8813439BB2FB8030484FF0400100F0BC
:100BB000C9FC03464FEA43139AB2FB8813439BB226
:100BC000FB802A484FF0800100F0BCFC03464FEA4E
:100BD00083139AB2FB8813439BB2FB8023484FF4E4
:100BE000807100F0AFFC03464FEAC3139AB2FB8852
:100BF00013439BB2FB801E484FF4804100F0A2FCDF
:100C000003464FEA03239AB2FB8813439BB2FB804F
:100C100017484FF4004100F095FC03464FEA432388
:100C20009AB2FB8813439BB2FB8010484FF40061DB
:100C300000F088FC03464FEA83239AB2FB881343F3
:100C40009BB2FB8009484FF4805100F07BFC0346C7
:100C50004FEAC3239AB2FB8813439BB2FB80FB8805
:100C6000184607F10807BD4680BD00BF00080140D7
:100C7000000C014080B582B000AF834B4FF0000202
:100C80001A70F7E0804B1B7803F00103DBB2002BF6
:100C900038D04FF00000FFF7E9FE7B4B1B784FEA9E
:100CA0005303DBB24FF0010202FA03F39BB2184682
:100CB000FFF782FE4FF01E00FFF7B4FC724B1B786B
:100CC000012B03D840F6F873FB800DE06E4B1B78C8
:100CD000A3F10C03DBB2012B03D84FF07F03FB80A1
:100CE00002E040F6FF73FB80FFF71AFF03469BB25A
:100CF0006FEA03039AB2FB8813409BB29AB2634B2C
:100D00001A801AE04FF00000FFF756FE5E4B1B788A
:100D10004FEA5303DBB24FF0010202FA03F39BB236
:100D20001846FFF7A3FE4FF01E00FFF77BFCFFF70E
:100D3000F7FE03461A46554B1A80554B4FF00002FA
:100D40001A708BE0504B1B784FEA5303DBB21A4604
:100D50004FEA4202D3184FEA8303DAB24C4B1B78B6
:100D6000D318DAB24B4B1A704A4B1B7803F11903B4
:100D7000DAB2494B1A70444B1B7803F00103DBB223
:100D8000002B38D0414B1B881A46414B1B7842FA46
:100D900003F303F00103002B15D03E4B1B781A46DA
:100DA0003E4B33F812204FF6FD739A424FD8394B21
:100DB0001B783A4A32F8132002F1010291B2374A05
:100DC00022F8131043E0334B1B781A46334B33F8A9
:100DD00012204FF6FF739A4204D12F4B1B7818460E
:100DE000FFF78AFB2B4B1B781A462C4B4FF0000168
:100DF00023F812102BE0254B1B881A46244B1B7836
:100E000042FA03F303F00103002B20D0214B1B789F
:100E10001A46224B33F812204FF6FF739A4216D02F
:100E20001D4B1B781A461B4B1B7819461B4B33F87E
:100E300011304FEA034313431846FFF75DFB154B90
:100E40001B781A46154B4FF6FF7123F81210104B02
:100E50001B7803F10103DAB20D4B1A700C4B1B78AF
:100E60000B2B7FF66FAF084B1B7803F10103DAB24F
:100E7000054B1A70044B1B780D2B7FF603AF07F15F
:100E80000807BD4680BD00BFAE000020B0000020B6
:100E9000B2000020B3000020B4000020B800002001
:100EA00080B500AF12484FF4004100F04BFB034601
:100EB0001A46104B1A700F4B1B78002B07D00E4BA5
:100EC0001B78002B03D14FF00100FFF715FB094BF6
:100ED0001B78002B07D1084B1B78002B03D04FF059
:100EE0000000FFF709FB034B1A78034B1A7080BD13
:100EF00000100140AC000020AD00002080B582B0A1
:100F000000AF00E000BF3B461846FFF721FB034659
:100F1000002BF7D03B684FEA13434FEA0343002B03
:100F200025D03B684FEA13434FF4AF62B2FBF3F3B3
:100F3000FB80B7F90630002B03DA4FF00003FB808B
:100F400006E0B7F906307F2B02DD4FF07F03FB8010
:100F50004FF09000FFF74AFA3B68DBB21846FFF704
:100F600045FAFB88DBB21846FFF740FACAE73B6850
:100F7000DBB2182B1ED83B68012B0BD14FF0B00011
:100F8000FFF734FA4FF04000FFF730FA4FF000005F
:100F9000FFF72CFA3B68002BB4D14FF0B000FFF7FD
:100FA00025FA4FF04000FFF721FA4FF07F00FFF7DE
:100FB0001DFAA7E74FF08000FFF718FA3B68DBB295
:100FC0001846FFF713FA4FF00000FFF70FFA99E702
:100FD00080B500AF154B154A126842F001021A6045
:100FE000124A124B5968124B0B4053600F4A0F4B79
:100FF0001B6823F0847323F4803313600B4B0B4A7C
:10100000126822F480221A60084B084A526822F4BF
:10101000FE025A60054B4FF41F029A6000F07EF802
:10102000044B4FF000629A6080BD00BF0010024088
:101030000000FFF800ED00E080B485B000AF4FF095
:101040000003FB604FF00003BB604FF000037B60C8
:101050002D4B5B6803F00C03FB60FB68042B07D08F
:10106000082B09D0002B35D1284B294A1A6035E0CE
:10107000264B274A1A6031E0234B5B6803F4701358
:10108000BB60214B5B6803F480337B60BB684FEA35
:10109000934303F10203BB607B68002B06D1BB685E
:1010A0001C4A02FB03F2194B1A6017E0164B5B68EF
:1010B00003F40033002B06D0BB68164A02FB03F290
:1010C000124B1A600AE0BB68114A02FB03F20F4B95
:1010D0001A6003E00D4B0E4A1A6000BF0A4B5B68B2
:1010E00003F0F0034FEA13130B4AD35CDBB2FB604F
:1010F000064B1A68FB6822FA03F2044B1A6007F1E8
:101100001407BD4680BC704700100240000000205C
:1011100000127A0000093D000400002080B500AFF5
:1011200000F002F880BD00BF80B483B000AF4FF084
:1011300000037B604FF000033B603B4B3A4A126870
:1011400042F480321A60384B1B6803F400333B6072
:101150007B6803F101037B603B68002B03D17B6854
:10116000B3F5A06FEFD1304B1B6803F40033002BB5
:1011700003D04FF001033B6002E04FF000033B60FF
:101180003B68012B4BD1294B284A126842F01002D0
:101190001A60264B254A126822F003021A60234B7C
:1011A000224A126842F002021A601F4B1E4A52681D
:1011B0005A601D4B1C4A52685A601B4B1A4A5268AF
:1011C00042F480625A60184B174A526822F47C122B
:1011D0005A60154B144A526842F4E8125A60124B96
:1011E000114A126842F080721A6000BF0E4B1B68F1
:1011F00003F00073002BF9D00B4B0B4A526822F01E
:1012000003025A60084B084A526842F002025A60D0
:1012100000BF054B5B6803F00C03082BF9D107F105
:101220000C07BD4680BC7047001002400020024001
:1012300080B582B000AF78607A683C4B9A420CD19E
:101240004FF004004FF0010100F07CFE4FF004006D
:101250004FF0000100F076FE64E07A68344B9A4269
:101260000CD14FF008004FF0010100F06BFE4FF081
:1012700008004FF0000100F065FE53E07A682D4B46
:101280009A420CD14FF010004FF0010100F05AFECD
:101290004FF010004FF0000100F054FE42E07A6879
:1012A000254B9A420CD14FF020004FF0010100F085
:1012B00049FE4FF020004FF0000100F043FE31E006
:1012C0007A681E4B9A420CD14FF040004FF001015A
:1012D00000F038FE4FF040004FF0000100F032FE09
:1012E00020E07A68164B9A420CD14FF080004FF004
:1012F000010100F027FE4FF080004FF0000100F0E8
:1013000021FE0FE07A680F4B9A420BD14FF48070A8
:101310004FF0010100F016FE4FF480704FF0000115
:1013200000F010FE07F10807BD4680BD000801402F
:10133000000C014000100140001401400018014061
:10134000001C01400020014080B500AF4FF00100BB
:101350004FF0010100F0F6FD4FF001004FF00001E9
:1013600000F0F0FD80BD00BF80B489B000AF7860B0
:1013700039604FF00003FB614FF000033B614FF019
:101380000003BB614FF00003FB604FF000037B6183
:101390004FF00003BB603B68DB7803F00F03FB6199
:1013A0003B68DB7803F01003002B04D03B689B788C
:1013B000FA691343FB613B681B88DBB2002B4ED0FC
:1013C0007B681B687B614FF00003BB6141E0BB6938
:1013D0004FF0010202FA03F3FB603B681B881A46D8
:1013E000FB6813403B613A69FB689A422DD1BB69A7
:1013F0004FEA8303FB60FB684FF00F0202FA03F32E
:10140000BB60BB686FEA03037A6913407B61FB68CA
:10141000FA6902FA03F37A6913437B613B68DB786C
:10142000282B07D1BB694FF0010202FA03F27B6857
:101430005A610AE03B68DB78482B06D1BB694FF064
:10144000010202FA03F27B681A61BB6903F101032E
:10145000BB61BB69072BBAD97B687A691A603B68A4
:101460001B88FF2B53D97B685B687B614FF00003BF
:10147000BB6146E0BB6903F108034FF0010202FAC9
:1014800003F3FB603B681B881A46FB6813403B6113
:101490003A69FB689A4230D1BB694FEA8303FB602B
:1014A000FB684FF00F0202FA03F3BB60BB686FEA00
:1014B00003037A6913407B61FB68FA6902FA03F35C
:1014C0007A6913437B613B68DB78282B08D1BB69C1
:1014D00003F108034FF0010202FA03F27B685A613C
:1014E0003B68DB78482B08D1BB6903F108034FF058
:1014F000010202FA03F27B681A61BB6903F101037E
:10150000BB61BB69072BB5D97B687A695A6007F163
:101510002407BD4680BC704780B483B000AF7860BC
:101520007B684FF6FF721A807B684FF002029A7058
:101530007B684FF00402DA7007F10C07BD4680BCEF
:10154000704700BF80B485B000AF78600B467B80E9
:101550004FF00003FB737B689A687B881340002B75
:1015600003D04FF00103FB7302E04FF00003FB7365
:10157000FB7B184607F11407BD4680BC704700BFCF
:1015800080B483B000AF78607B689B689BB21846DC
:1015900007F10C07BD4680BC704700BF80B485B022
:1015A00000AF78600B467B804FF00003FB737B68D5
:1015B000DA687B881340002B03D04FF00103FB73E4
:1015C00002E04FF00003FB73FB7B184607F11407A2
:1015D000BD4680BC704700BF80B483B000AF786068
:1015E0007B68DB689BB2184607F10C07BD4680BCE0
:1015F000704700BF80B483B000AF78600B467B803B
:101600007A887B681A6107F10C07BD4680BC704779
:1016100080B483B000AF78600B467B807A887B68AB
:101620005A6107F10C07BD4680BC704780B483B097
:1016300000AF786013460A467A807B707B78002B77
:1016400003D07A887B681A6102E07A887B685A61E5
:1016500007F10C07BD4680BC704700BF80B483B063
:1016600000AF78600B467B807A887B68DA6007F190
:101670000C07BD4680BC704780B485B000AF786071
:101680000B467B804FF48033FB607B88FA68134302
:10169000FB607B68FA689A617A887B689A617B68EC
:1016A000FA689A617B689B69FB607B689B69FB6059
:1016B00007F11407BD4680BC704700BF80B485B0F9
:1016C00000AF02460B46FA71BB714FF00003FB609E
:1016D0000C4B1B68FB60FA684FF680731340FB608D
:1016E000FB794FEA0313FA681343FB60BB79FA688E
:1016F0001343FB60034BFA681A6007F11407BD46F9
:1017000080BC70470000014080B483B000AF034646
:10171000FB71044BFA791A6007F10C07BD4680BCD7
:10172000704700BF1C00204280B487B000AF7860D3
:101730000B46FB704FF000033B614FF00003FB6072
:101740004FF000037B614FF00003BB607B68002B10
:1017500003DA344BDB697B6102E0324B5B687B610F
:101760007B6803F470234FEA1343BB607B684FEA46
:1017700003434FEA13433B617B6803F44013B3F523
:10178000401F0AD17B6923F070637B61254B254A9A
:10179000526822F070625A6026E07B6803F480137E
:1017A000002B10D0BB684FF0030202FA03F3FB607A
:1017B000FB686FEA03037A6913407B617B6943F03E
:1017C00070637B6110E07B684FEA53534FEA031369
:1017D0003A6902FA03F36FEA03037A6913407B6103
:1017E0007B6943F070637B61FB78002B0AD07B68D8
:1017F0004FEA53534FEA03133A6902FA03F37A6943
:1018000013437B617B68002B03DA064B7A69DA614C
:1018100002E0044B7A695A6007F11C07BD4680BCA0
:10182000704700BF0000014090B484B000AF024692
:101830000B46FA71BB714FF00003FB60BB7903F0FC
:1018400003034FEA83034FF00F0202FA03F3FB6036
:101850001A4BBA794FEA9202D2B21849B8794FEAD4
:101860009000C0B200F1020051F82000F9686FEA60
:101870000101014002F1020243F822100F4BBA7934
:101880004FEA9202D2B20D49B8794FEA9000C0B245
:1018900000F1020051F82000FC79B97901F0030150
:1018A0004FEA810104FA01F1014302F1020243F817
:1018B000221007F11007BD4690BC704700000140A0
:1018C00080B483B000AF7860034B7A681A6007F188
:1018D0000C07BD4680BC7047DC00204280B400AFDE
:1018E000134B134A126842F001021A60104A104B5F
:1018F0005968104B0B4053600D4A0D4B1B6823F089
:10190000847323F480331360094B094A126822F46C
:1019100080221A60064B064A526822F4FE025A6080
:10192000034B4FF41F029A60BD4680BC704700BF56
:10193000001002400000FFF880B483B000AF786070
:10194000134B134A126822F480321A60104B104A6B
:10195000126822F480221A607B68B3F5803F03D0BE
:10196000B3F5802F07D00DE0094B094A126842F405
:1019700080321A6007E0064B054A126842F4A02242
:101980001A6000E000BF07F10C07BD4680BC70473D
:101990000010024080B582B000AF4FF000033B6002
:1019A0004FF00003FB714FF00003BB714FF03100AB
:1019B00000F038FB0346BB713B6803F101033B6059
:1019C0003B68B3F5A06F02D0BB79002BEED04FF08F
:1019D000310000F027FB0346002B03D04FF001033A
:1019E000FB7102E04FF00003FB71FB79184607F131
:1019F0000807BD4680BD00BF80B485B000AF034678
:101A0000FB714FF00003FB600A4B1B68FB60FB6837
:101A100023F0F803FB60FB794FEAC303FA68134332
:101A2000FB60044BFA681A6007F11407BD4680BCDE
:101A3000704700BF0010024080B483B000AF03467F
:101A4000FB71044BFA791A6007F10C07BD4680BCA4
:101A5000704700BF0000424280B485B000AF78609C
:101A600039604FF00003FB600A4B5B68FB60FB686A
:101A700023F47C13FB607A683B681343FA681343D2
:101A8000FB60044BFA685A6007F11407BD4680BC3E
:101A9000704700BF0010024080B483B000AF03461F
:101AA000FB71044BFA791A6007F10C07BD4680BC44
:101AB000704700BF6000424280B485B000AF7860DC
:101AC0004FF00003FB60094B5B68FB60FB6823F091
:101AD0000303FB60FA687B681343FB60034BFA68FF
:101AE0005A6007F11407BD4680BC704700100240E1
:101AF00080B400AF044B5B68DBB203F00C03DBB2D5
:101B00001846BD4680BC70470010024080B485B0C6
:101B100000AF78604FF00003FB60094B5B68FB602F
:101B2000FB6823F0F003FB60FA687B681343FB60FB
:101B3000034BFA685A6007F11407BD4680BC704732
:101B40000010024080B485B000AF78604FF0000311
:101B5000FB60094B5B68FB60FB6823F4E063FB60A0
:101B6000FA687B681343FB60034BFA685A6007F11D
:101B70001407BD4680BC70470010024080B485B099
:101B800000AF78604FF00003FB600A4B5B68FB60BE
:101B9000FB6823F46053FB607B684FEAC303FA6879
:101BA0001343FB60034BFA685A6007F11407BD4604
:101BB00080BC70470010024080B483B000AF024682
:101BC0000B46FA71BB71BB79002B08D00C4B0C4A49
:101BD0001278D1B2FA790A43D2B21A700AE0084BED
:101BE000074A1278D1B2FA796FEA0202D2B20A40F9
:101BF000D2B21A7007F10C07BD4680BC704700BF17
:101C00000910024080B483B000AF7860034B7A685B
:101C10001A6007F10C07BD4680BC7047D8004242ED
:101C200080B485B000AF78604FF00003FB60094BD3
:101C30005B68FB60FB6823F44043FB60FA687B68E9
:101C40001343FB60034BFA685A6007F11407BD4663
:101C500080BC70470010024080B483B000AF0346E0
:101C6000FB710F4B4FF000021A700D4B4FF000024A
:101C70001A70FB79012B02D0042B05D009E0084B28
:101C80004FF001021A7005E0054B4FF005021A7083
:101C900000E000BF07F10C07BD4680BC704700BFE5
:101CA0002010024080B483B000AF0346FB71044BA8
:101CB000FA791A6007F10C07BD4680BC704700BF77
:101CC0008004424280B483B000AF7860054B054A7F
:101CD000116A7A680A431A6207F10C07BD4680BC94
:101CE000704700BF0010024080B483B000AF0346CD
:101CF000FB71044BFA791A6007F10C07BD4680BCF2
:101D0000704700BF3C04424280B487B000AF7860A7
:101D10004FF000037B614FF000033B614FF0000385
:101D2000FB604FF00003BB60514B5B6803F00C039A
:101D30007B617B69042B07D0082B09D0002B35D1A0
:101D40007B684C4A1A6035E07B684A4A1A6031E089
:101D5000474B5B6803F470133B61454B5B6803F4CE
:101D60008033FB603B694FEA934303F102033B611D
:101D7000FB68002B06D13B693F4A02FB03F27B68FC
:101D80001A6017E03A4B5B6803F40033002B06D06F
:101D90003B69394A02FB03F27B681A600AE03B693F
:101DA000344A02FB03F27B681A6003E07B68314A25
:101DB0001A6000BF2E4B5B6803F0F0037B617B6908
:101DC0004FEA13137B612D4A7B69D3181B78DBB272
:101DD000BB607B681A68BB6822FA03F27B685A60B2
:101DE000234B5B6803F4E0637B617B694FEA132359
:101DF0007B61224A7B69D3181B78DBB2BB607B68AE
:101E00005A68BB6822FA03F27B689A60184B5B68D9
:101E100003F460537B617B694FEAD3237B61174AEC
:101E20007B69D3181B78DBB2BB607B685A68BB68E0
:101E300022FA03F27B68DA600D4B5B6803F44043DF
:101E40007B617B694FEA93337B610D4A7B69D318D1
:101E50001B78DBB2BB607B68DA68BB68B2FBF3F26D
:101E60007B681A6107F11C07BD4680BC704700BF44
:101E70000010024000127A0000093D00140000200A
:101E80002400002080B483B000AF78600B46FB7064
:101E9000FB78002B06D00A4B094A51697A680A433D
:101EA0005A6107E0064B064A51697A686FEA0202F6
:101EB0000A405A6107F10C07BD4680BC704700BF5D
:101EC0000010024080B483B000AF78600B46FB7016
:101ED000FB78002B06D00A4B094A91697A680A43BD
:101EE0009A6107E0064B064A91697A686FEA020236
:101EF0000A409A6107F10C07BD4680BC704700BFDD
:101F00000010024080B483B000AF78600B46FB70D5
:101F1000FB78002B06D00A4B094AD1697A680A433C
:101F2000DA6107E0064B064AD1697A686FEA020275
:101F30000A40DA6107F10C07BD4680BC704700BF5C
:101F40000010024080B483B000AF78600B46FB7095
:101F5000FB78002B06D00A4B094AD1687A680A43FD
:101F6000DA6007E0064B064AD1687A686FEA020237
:101F70000A40DA6007F10C07BD4680BC704700BF1D
:101F80000010024080B483B000AF78600B46FB7055
:101F9000FB78002B06D00A4B094A11697A680A437C
:101FA0001A6107E0064B064A11697A686FEA020275
:101FB0000A401A6107F10C07BD4680BC704700BF9C
:101FC0000010024080B483B000AF0346FB71044BA5
:101FD000FA791A6007F10C07BD4680BC704700BF54
:101FE0004004424280B483B000AF0346FB71044B0F
:101FF000FA791A6007F10C07BD4680BC704700BF34
:102000004C00424280B483B000AF0346FB71044BE6
:10201000FA791A7007F10C07BD4680BC704700BF03
:102020000710024080B487B000AF0346FB714FF049
:102030000003FB604FF000037B614FF00003FB7473
:10204000FB794FEA5313DBB2FB60FB68012B03D132
:10205000134B1B687B6109E0FB68022B03D1104B1B
:102060001B6A7B6102E00E4B5B6A7B61FB7903F0CC
:102070001F03FB60FB687A6922FA03F303F0010394
:10208000002B03D04FF00103FB7402E04FF000037C
:10209000FB74FB7C184607F11C07BD4680BC7047EB
:1020A0000010024080B400AF044B044A526A42F070
:1020B00080725A62BD4680BC704700BF001002406B
:1020C00080B485B000AF0346FB714FF00003FB7393
:1020D000094B9A68FB791340002B03D04FF00103A2
:1020E000FB7302E04FF00003FB73FB7B184607F124
:1020F0001407BD4680BC70470010024080B483B016
:1021000000AF0346FB71044BFA791A7007F10C0714
:10211000BD4680BC704700BF0A10024080B582B047
:1021200000AF78607A682B4B9A420CD14FF4804014
:102130004FF00101FFF706FF4FF480404FF0000120
:10214000FFF700FF42E07A68234B9A420CD14FF42C
:1021500000304FF00101FFF715FF4FF400304FF052
:102160000001FFF70FFF31E07A681C4B9A420CD157
:102170004FF480204FF00101FFF704FF4FF480205F
:102180004FF00001FFF7FEFE20E07A68144B9A4200
:102190000CD14FF400204FF00101FFF7F3FE4FF494
:1021A00000204FF00001FFF7EDFE0FE07A680D4BC5
:1021B0009A420BD14FF480104FF00101FFF7E2FE7D
:1021C0004FF480104FF00001FFF7DCFE07F1080725
:1021D000BD4680BD0038014000440040004800403A
:1021E000004C00400050004080B58CB000AF7860DB
:1021F00039604FF00003FB624FF00003BB624FF009
:1022000000037B624FF000033B624FF00003FB6171
:102210007B68FB617B681B8A9BB2FB62FA6A4CF6A7
:10222000FF731340FB623B68DB88FA6A1343FB626F
:10223000FB6A9AB27B681A827B689B899BB2FB62BD
:10224000FA6A4EF6F3131340FB623B689A883B68C8
:102250001B8913439AB23B685B8913439BB2FA6AAA
:102260001343FB62FB6A9AB27B689A817B689B8A04
:102270009BB2FB62FA6A4FF6FF431340FB623B6876
:102280009B89FA6A1343FB62FB6A9AB27B689A8263
:1022900007F108031846FFF737FDFA69374B9A42F2
:1022A00002D17B69BB6201E03B69BB627B689B89B1
:1022B0009BB29BB21BB2002B0FDABA6A13464FEAED
:1022C00083039B184FEA83029A183B681B684FEA06
:1022D0004303B2FBF3F37B620EE0BA6A13464FEAA4
:1022E00083039B184FEA83029A183B681B684FEAE6
:1022F0008303B2FBF3F37B627A6A214BA3FB0213E5
:102300004FEA53134FEA0313FB62FB6A4FEA1313BE
:102310004FF0640202FB03F37A6AD31A3B627B68D4
:102320009B899BB29BB21BB2002B0FDA3B6A4FEA30
:10233000C30303F13202124BA3FB02134FEA531300
:1023400003F00703FA6A1343FB620EE03B6A4FEAAD
:10235000031303F132020A4BA3FB02134FEA531398
:1023600003F00F03FA6A1343FB62FB6A9AB27B68BD
:102370001A8107F13007BD4680BD00BF003801401B
:102380001F85EB5180B483B000AF78607B684FF459
:1023900016521A607B684FF000029A807B684FF0FB
:1023A0000002DA807B684FF000021A817B684FF0F0
:1023B0000C025A817B684FF000029A8107F10C07EA
:1023C000BD4680BC704700BF80B485B000AF786068
:1023D00039604FF00003FB607B681B8A9BB2FB6097
:1023E000FA684FF2FF031340FB603B681A883B68B2
:1023F0005B8813439AB23B689B8813439AB23B684D
:10240000DB8813439BB2FA681343FB60FB689AB204
:102410007B681A8207F11407BD4680BC704700BF75
:1024200080B483B000AF78607B684FF000021A8000
:102430007B684FF000025A807B684FF000029A8060
:102440007B684FF00002DA8007F10C07BD4680BCC4
:10245000704700BF80B483B000AF78600B46FB705C
:10246000FB78002B08D07B689B899BB243F4005318
:102470009AB27B689A8107E07B689B899BB223F4C0
:1024800000539AB27B689A8107F10C07BD4680BC65
:10249000704700BF80B487B000AF786013460A462B
:1024A0007A807B704FF000033B614FF00003FB60CC
:1024B0004FF00003BB604FF000037B617B687B61E2
:1024C0007B88DBB24FEA5313DBB23B617B8803F0BE
:1024D0001F03FB60FB684FF0010202FA03F3BB60CD
:1024E0003B69012B04D17B6903F10C037B610BE099
:1024F0003B69022B04D17B6903F110037B6103E08C
:102500007B6903F114037B617B78002B06D07B6928
:102510007A691168BA680A431A6007E07B697A69C8
:102520001168BA686FEA02020A401A6007F11C07D4
:10253000BD4680BC704700BF80B483B000AF7860F8
:1025400013460A467A807B707B78002B08D07B6824
:102550009B8A9AB27B8813439AB27B689A820AE07C
:102560007B689B8A9AB27B886FEA03039BB2134015
:102570009AB27B689A8207F10C07BD4680BC70470F
:1025800080B483B000AF78600B46FB707B681B8A19
:102590009BB223F00F039AB27B681A827B681B8A76
:1025A0009AB2FB789BB213439AB27B681A8207F106
:1025B0000C07BD4680BC704780B483B000AF786024
:1025C0000B467B807B689B899BB223F400639AB2A5
:1025D0007B689A817B689B899AB27B8813439AB205
:1025E0007B689A8107F10C07BD4680BC704700BF2D
:1025F00080B483B000AF78600B46FB70FB78002B93
:1026000008D07B689B899BB243F002039AB27B6837
:102610009A8107E07B689B899BB223F002039AB200
:102620007B689A8107F10C07BD4680BC704700BFEC
:1026300080B483B000AF78600B467B807B681B8AD8
:102640009BB223F020039AB27B681A827B681B8AB4
:102650009AB27B8813439AB27B681A8207F10C07FF
:10266000BD4680BC704700BF80B483B000AF7860C7
:102670000B46FB70FB78002B08D07B681B8A9BB253
:1026800043F480439AB27B681A8207E07B681B8A16
:102690009BB223F480439AB27B681A8207F10C073D
:1026A000BD4680BC704700BF80B483B000AF786087
:1026B0000B467B807B884FEAC3534FEAD3539AB2D1
:1026C0007B689A8007F10C07BD4680BC704700BF4D
:1026D00080B483B000AF78607B689B889BB24FEA80
:1026E000C3534FEAD3539BB2184607F10C07BD46BC
:1026F00080BC704780B483B000AF78607B689B89F2
:102700009BB243F001039AB27B689A8107F10C07F0
:10271000BD4680BC704700BF80B483B000AF786016
:102720000B46FB707B681B8B9BB2DBB29AB27B685B
:102730001A837B681B8B9AB2FB789BB24FEA032308
:102740009BB213439AB27B681A8307F10C07BD460C
:1027500080BC704780B483B000AF78600B46FB70DC
:102760007B681B8B9BB223F0FF039AB27B681A83B2
:102770007B681B8B9AB2FB789BB213439AB27B683F
:102780001A8307F10C07BD4680BC704780B483B044
:1027900000AF78600B46FB70FB78002B08D07B689D
:1027A0009B8A9BB243F020039AB27B689A8207E02F
:1027B0007B689B8A9BB223F020039AB27B689A8243
:1027C00007F10C07BD4680BC704700BF80B483B0E2
:1027D00000AF78600B46FB70FB78002B08D07B685D
:1027E0009B8A9BB243F010039AB27B689A8207E0FF
:1027F0007B689B8A9BB223F010039AB27B689A8213
:1028000007F10C07BD4680BC704700BF80B483B0A1
:1028100000AF78600B46FB70FB78002B08D07B681C
:102820009B8A9BB243F008039AB27B689A8207E0C6
:102830007B689B8A9BB223F008039AB27B689A82DA
:1028400007F10C07BD4680BC704700BF80B483B061
:1028500000AF78600B46FB70FB78002B0AD07B68DA
:102860009B899BB26FEA43436FEA53439AB27B68FA
:102870009A8109E07B689B899BB24FEA43434FEA08
:1028800053439AB27B689A8107F10C07BD4680BC1E
:10289000704700BF80B483B000AF78600B46FB7018
:1028A000FB78002B08D07B689B8A9BB243F40063C3
:1028B0009AB27B689A8207E07B689B8A9BB223F47A
:1028C00000639AB27B689A8207F10C07BD4680BC10
:1028D000704700BF80B483B000AF78600B467B8048
:1028E0007B689B8A9BB223F004039AB27B689A822E
:1028F0007B689B8A9AB27B8813439AB27B689A82E0
:1029000007F10C07BD4680BC704700BF80B483B0A0
:1029100000AF78600B46FB70FB78002B08D07B681B
:102920009B8A9BB243F002039AB27B689A8207E0CB
:102930007B689B8A9BB223F002039AB27B689A82DF
:1029400007F10C07BD4680BC704700BF80B485B05E
:1029500000AF78600B467B804FF00003FB737B6811
:102960001B889AB27B8813409BB2002B03D04FF098
:102970000103FB7302E04FF00003FB73FB7B18467F
:1029800007F11407BD4680BC704700BF80B483B018
:1029900000AF78600B467B807B886FEA03039AB2B6
:1029A0007B681A8007F10C07BD4680BC704700BFEA
:1029B00080B487B000AF78600B467B804FF0000397
:1029C000FB604FF000037B614FF00003BB604FF0F2
:1029D0000003FB747B88DBB24FEA5313DBB2BB60AE
:1029E0007B8803F01F037B617B694FF0010202FAD1
:1029F00003F37B61BB68012B06D17B689B899BB28B
:102A00007A6913407B610FE0BB68022B06D17B68BB
:102A10001B8A9BB27A6913407B6105E07B689B8AC5
:102A20009BB27A6913407B617B884FEA13239BB288
:102A3000FB60FB684FF0010202FA03F3FB607B6866
:102A40001B889BB2FA681340FB607B69002B06D0A1
:102A5000FB68002B03D04FF00103FB7402E04FF042
:102A60000003FB74FB7C184607F11C07BD4680BCC5
:102A7000704700BF80B485B000AF78600B467B80A4
:102A80004FF00003FB814FF00003BB817B884FEACE
:102A90001323FB81FB894FF0010202FA03F3BB8190
:102AA000BB896FEA03039AB27B681A8007F11407A7
:082AB000BD4680BC704700BF69
:102AB80000A24A0400000000000000000102030414
:102AC80006070809000000000102030401020304CC
:082AD8000607080902040608C4
:040000050800025598
:00000001FF
